:020000040000FA
:040000000128FE2FA6
:100ED4008731CB27873163006D2F012860305101A2
:100EE4008D008F019101063093009001920108005A
:100EF400C7304F01960087309700633098003F3029
:100F0400990051309A009B01080002307C01910045
:100F14009201013093009401013095000530960050
:100F240097019801990180309000080003307C01FA
:100F34009B009C0101309D009E0101309F00053003
:100F4400A000A101A201A30180309A00080003308F
:100F54007C01A500A6010130A700A8010130A90069
:100F64000A30AA00AB01AC01AD018030A400080036
:100F740002307C01AF00B0010130B100B201013098
:100F8400B3000A30B400B501B601B7018030AE0039
:100F9400080087317A2787318731E1278731873104
:100FA400702787318731872787318731BA2787317F
:100FB4008731A92787318731982787310800400175
:100FC4009801103092007E01B801B901BA0137309E
:100FD400BB003F30BC0004307D01BB0004307E0107
:100FE400950003307D01BC0002307E019100033086
:0C0FF400920001309000080040016A2FBC
:020000040001F9
:0A000E008C3FFE3F9F3FFF1FFF3FA6
:00000001FF
